{
  "address": "0xaAbf80A7e2aCC3494BC086d01a3c25C562a41884",
  "abi": [
    {
      "inputs": [],
      "stateMutability": "nonpayable",
      "type": "constructor"
    },
    {
      "anonymous": false,
      "inputs": [
        {
          "indexed": false,
          "internalType": "address",
          "name": "previousAdmin",
          "type": "address"
        },
        {
          "indexed": false,
          "internalType": "address",
          "name": "newAdmin",
          "type": "address"
        }
      ],
      "name": "AdminChanged",
      "type": "event"
    },
    {
      "anonymous": false,
      "inputs": [
        {
          "components": [
            {
              "internalType": "address",
              "name": "collection",
              "type": "address"
            },
            {
              "internalType": "uint256",
              "name": "tokenId",
              "type": "uint256"
            }
          ],
          "indexed": false,
          "internalType": "struct ERC721Token[]",
          "name": "tokens",
          "type": "tuple[]"
        }
      ],
      "name": "AuthenticationRevoked",
      "type": "event"
    },
    {
      "anonymous": false,
      "inputs": [
        {
          "indexed": true,
          "internalType": "address",
          "name": "beacon",
          "type": "address"
        }
      ],
      "name": "BeaconUpgraded",
      "type": "event"
    },
    {
      "anonymous": false,
      "inputs": [
        {
          "components": [
            {
              "internalType": "address",
              "name": "collection",
              "type": "address"
            },
            {
              "internalType": "uint256",
              "name": "tokenId",
              "type": "uint256"
            }
          ],
          "indexed": false,
          "internalType": "struct ERC721Token[]",
          "name": "tokens",
          "type": "tuple[]"
        },
        {
          "indexed": false,
          "internalType": "bool[]",
          "name": "statuses",
          "type": "bool[]"
        }
      ],
      "name": "ERC721TokensAuthenticated",
      "type": "event"
    },
    {
      "anonymous": false,
      "inputs": [
        {
          "indexed": true,
          "internalType": "bytes32",
          "name": "role",
          "type": "bytes32"
        },
        {
          "indexed": true,
          "internalType": "bytes32",
          "name": "previousAdminRole",
          "type": "bytes32"
        },
        {
          "indexed": true,
          "internalType": "bytes32",
          "name": "newAdminRole",
          "type": "bytes32"
        }
      ],
      "name": "RoleAdminChanged",
      "type": "event"
    },
    {
      "anonymous": false,
      "inputs": [
        {
          "indexed": true,
          "internalType": "bytes32",
          "name": "role",
          "type": "bytes32"
        },
        {
          "indexed": true,
          "internalType": "address",
          "name": "account",
          "type": "address"
        },
        {
          "indexed": true,
          "internalType": "address",
          "name": "sender",
          "type": "address"
        }
      ],
      "name": "RoleGranted",
      "type": "event"
    },
    {
      "anonymous": false,
      "inputs": [
        {
          "indexed": true,
          "internalType": "bytes32",
          "name": "role",
          "type": "bytes32"
        },
        {
          "indexed": true,
          "internalType": "address",
          "name": "account",
          "type": "address"
        },
        {
          "indexed": true,
          "internalType": "address",
          "name": "sender",
          "type": "address"
        }
      ],
      "name": "RoleRevoked",
      "type": "event"
    },
    {
      "anonymous": false,
      "inputs": [
        {
          "indexed": true,
          "internalType": "address",
          "name": "implementation",
          "type": "address"
        }
      ],
      "name": "Upgraded",
      "type": "event"
    },
    {
      "inputs": [],
      "name": "DEFAULT_ADMIN_ROLE",
      "outputs": [
        {
          "internalType": "bytes32",
          "name": "",
          "type": "bytes32"
        }
      ],
      "stateMutability": "view",
      "type": "function"
    },
    {
      "inputs": [
        {
          "components": [
            {
              "internalType": "address",
              "name": "collection",
              "type": "address"
            },
            {
              "internalType": "uint256",
              "name": "tokenId",
              "type": "uint256"
            }
          ],
          "internalType": "struct ERC721Token[]",
          "name": "tokens_",
          "type": "tuple[]"
        }
      ],
      "name": "authenticateERC721Tokens",
      "outputs": [],
      "stateMutability": "nonpayable",
      "type": "function"
    },
    {
      "inputs": [
        {
          "internalType": "bytes32",
          "name": "role",
          "type": "bytes32"
        }
      ],
      "name": "getRoleAdmin",
      "outputs": [
        {
          "internalType": "bytes32",
          "name": "",
          "type": "bytes32"
        }
      ],
      "stateMutability": "view",
      "type": "function"
    },
    {
      "inputs": [
        {
          "internalType": "bytes32",
          "name": "role",
          "type": "bytes32"
        },
        {
          "internalType": "address",
          "name": "account",
          "type": "address"
        }
      ],
      "name": "grantRole",
      "outputs": [],
      "stateMutability": "nonpayable",
      "type": "function"
    },
    {
      "inputs": [
        {
          "internalType": "bytes32",
          "name": "role",
          "type": "bytes32"
        },
        {
          "internalType": "address",
          "name": "account",
          "type": "address"
        }
      ],
      "name": "hasRole",
      "outputs": [
        {
          "internalType": "bool",
          "name": "",
          "type": "bool"
        }
      ],
      "stateMutability": "view",
      "type": "function"
    },
    {
      "inputs": [],
      "name": "initialize",
      "outputs": [],
      "stateMutability": "nonpayable",
      "type": "function"
    },
    {
      "inputs": [
        {
          "components": [
            {
              "internalType": "address",
              "name": "collection",
              "type": "address"
            },
            {
              "internalType": "uint256",
              "name": "tokenId",
              "type": "uint256"
            }
          ],
          "internalType": "struct ERC721Token",
          "name": "token_",
          "type": "tuple"
        }
      ],
      "name": "isAuthenticated",
      "outputs": [
        {
          "internalType": "bool",
          "name": "authenticated",
          "type": "bool"
        }
      ],
      "stateMutability": "view",
      "type": "function"
    },
    {
      "inputs": [],
      "name": "proxiableUUID",
      "outputs": [
        {
          "internalType": "bytes32",
          "name": "",
          "type": "bytes32"
        }
      ],
      "stateMutability": "view",
      "type": "function"
    },
    {
      "inputs": [
        {
          "internalType": "bytes32",
          "name": "role",
          "type": "bytes32"
        },
        {
          "internalType": "address",
          "name": "account",
          "type": "address"
        }
      ],
      "name": "renounceRole",
      "outputs": [],
      "stateMutability": "nonpayable",
      "type": "function"
    },
    {
      "inputs": [
        {
          "components": [
            {
              "internalType": "address",
              "name": "collection",
              "type": "address"
            },
            {
              "internalType": "uint256",
              "name": "tokenId",
              "type": "uint256"
            }
          ],
          "internalType": "struct ERC721Token[]",
          "name": "tokens_",
          "type": "tuple[]"
        }
      ],
      "name": "revokeAuthentication",
      "outputs": [],
      "stateMutability": "nonpayable",
      "type": "function"
    },
    {
      "inputs": [
        {
          "internalType": "bytes32",
          "name": "role",
          "type": "bytes32"
        },
        {
          "internalType": "address",
          "name": "account",
          "type": "address"
        }
      ],
      "name": "revokeRole",
      "outputs": [],
      "stateMutability": "nonpayable",
      "type": "function"
    },
    {
      "inputs": [
        {
          "internalType": "bytes4",
          "name": "interfaceId",
          "type": "bytes4"
        }
      ],
      "name": "supportsInterface",
      "outputs": [
        {
          "internalType": "bool",
          "name": "",
          "type": "bool"
        }
      ],
      "stateMutability": "view",
      "type": "function"
    },
    {
      "inputs": [
        {
          "internalType": "address",
          "name": "newImplementation",
          "type": "address"
        }
      ],
      "name": "upgradeTo",
      "outputs": [],
      "stateMutability": "nonpayable",
      "type": "function"
    },
    {
      "inputs": [
        {
          "internalType": "address",
          "name": "newImplementation",
          "type": "address"
        },
        {
          "internalType": "bytes",
          "name": "data",
          "type": "bytes"
        }
      ],
      "name": "upgradeToAndCall",
      "outputs": [],
      "stateMutability": "payable",
      "type": "function"
    }
  ],
  "transactionHash": "0xc85630f6d50729c2ce24555547521c439e4a48fddd949279d494515630c9f3c9",
  "args": [],
  "numDeployments": 2,
  "solcInputHash": "294a5b0b545e38f49069036c5f4e76a7",
  "bytecode": "0x60a0604052306080523480156200001557600080fd5b50600054610100900460ff16620000335760005460ff16156200003d565b6200003d620000e2565b620000a55760405162461bcd60e51b815260206004820152602e60248201527f496e697469616c697a61626c653a20636f6e747261637420697320616c72656160448201526d191e481a5b9a5d1a585b1a5e995960921b606482015260840160405180910390fd5b600054610100900460ff16158015620000c8576000805461ffff19166101011790555b8015620000db576000805461ff00191690555b506200010f565b6000620000fa306200010060201b62000aa81760201c565b15905090565b6001600160a01b03163b151590565b6080516119306200014760003960008181610399015281816103d901528181610479015281816104b9015261054801526119306000f3fe6080604052600436106100dd5760003560e01c80638129fc1c1161007f578063a217fddf11610059578063a217fddf14610234578063d547741f14610249578063d9a6867b14610269578063db54d61f1461028957600080fd5b80638129fc1c146101df5780638f2c4603146101f457806391d148541461021457600080fd5b806336568abe116100bb57806336568abe146101775780633659cfe6146101975780634f1ef286146101b757806352d1902d146101ca57600080fd5b806301ffc9a7146100e2578063248a9ca3146101175780632f2ff15d14610155575b600080fd5b3480156100ee57600080fd5b506101026100fd366004611307565b6102a9565b60405190151581526020015b60405180910390f35b34801561012357600080fd5b50610147610132366004611331565b600090815260c9602052604090206001015490565b60405190815260200161010e565b34801561016157600080fd5b5061017561017036600461135f565b6102e0565b005b34801561018357600080fd5b5061017561019236600461135f565b61030b565b3480156101a357600080fd5b506101756101b236600461138f565b61038e565b6101756101c53660046113f3565b61046e565b3480156101d657600080fd5b5061014761053b565b3480156101eb57600080fd5b506101756105ee565b34801561020057600080fd5b5061010261020f36600461149b565b610715565b34801561022057600080fd5b5061010261022f36600461135f565b6107b2565b34801561024057600080fd5b50610147600081565b34801561025557600080fd5b5061017561026436600461135f565b6107dd565b34801561027557600080fd5b506101756102843660046114b3565b610803565b34801561029557600080fd5b506101756102a43660046114b3565b61093e565b60006001600160e01b03198216637965db0b60e01b14806102da57506301ffc9a760e01b6001600160e01b03198316145b92915050565b600082815260c960205260409020600101546102fc8133610ab7565b6103068383610b1b565b505050565b6001600160a01b03811633146103805760405162461bcd60e51b815260206004820152602f60248201527f416363657373436f6e74726f6c3a2063616e206f6e6c792072656e6f756e636560448201526e103937b632b9903337b91039b2b63360891b60648201526084015b60405180910390fd5b61038a8282610ba1565b5050565b306001600160a01b037f00000000000000000000000000000000000000000000000000000000000000001614156103d75760405162461bcd60e51b815260040161037790611528565b7f00000000000000000000000000000000000000000000000000000000000000006001600160a01b03166104206000805160206118b4833981519152546001600160a01b031690565b6001600160a01b0316146104465760405162461bcd60e51b815260040161037790611574565b61044f81610c08565b6040805160008082526020820190925261046b91839190610c33565b50565b306001600160a01b037f00000000000000000000000000000000000000000000000000000000000000001614156104b75760405162461bcd60e51b815260040161037790611528565b7f00000000000000000000000000000000000000000000000000000000000000006001600160a01b03166105006000805160206118b4833981519152546001600160a01b031690565b6001600160a01b0316146105265760405162461bcd60e51b815260040161037790611574565b61052f82610c08565b61038a82826001610c33565b6000306001600160a01b037f000000000000000000000000000000000000000000000000000000000000000016146105db5760405162461bcd60e51b815260206004820152603860248201527f555550535570677261646561626c653a206d757374206e6f742062652063616c60448201527f6c6564207468726f7567682064656c656761746563616c6c00000000000000006064820152608401610377565b506000805160206118b483398151915290565b600054610100900460ff166106095760005460ff161561060d565b303b155b6106705760405162461bcd60e51b815260206004820152602e60248201527f496e697469616c697a61626c653a20636f6e747261637420697320616c72656160448201526d191e481a5b9a5d1a585b1a5e995960921b6064820152608401610377565b600054610100900460ff16158015610692576000805461ffff19166101011790555b61069a610dad565b6106a2610dad565b6106ad600033610b1b565b6106d77fa615a8afb6fffcb8c6809ac0997b5c9c12b8cc97651150f14c8f6203168cff4c33610b1b565b6107017f2edff3fe7aa0cf904c1e3fb0e6088aff4ae10ca6c8718f01667682663312385033610b1b565b801561046b576000805461ff001916905550565b600061072e610729368490038401846115c0565b610e1a565b61073a57506000919050565b6000610749602084018461138f565b604080516001600160a01b039092166020838101919091528501359082015260600160408051601f19818403018152919052805160209091012090506001600082815260fb602052604090205460ff1660018111156107aa576107aa611618565b149392505050565b600091825260c9602090815260408084206001600160a01b0393909316845291905290205460ff1690565b600082815260c960205260409020600101546107f98133610ab7565b6103068383610ba1565b7f2edff3fe7aa0cf904c1e3fb0e6088aff4ae10ca6c8718f01667682663312385061082e8133610ab7565b816108685760405162461bcd60e51b815260206004820152600a602482015269115b5c1d1e481b1a5cdd60b21b6044820152606401610377565b60005b828110156108ff5760008484838181106108875761088761162e565b90506040020180360381019061089d91906115c0565b8051602091820151604080516001600160a01b03909316838501528281019190915280518083038201815260609092018152815191830191909120600090815260fb9092529020805460ff1916905550806108f78161165a565b91505061086b565b507facd1f315244ece13ee01516efd4865ad997e90546fbbbdc9ba6c0442e6db530d83836040516109319291906116c8565b60405180910390a1505050565b7f2edff3fe7aa0cf904c1e3fb0e6088aff4ae10ca6c8718f0166768266331238506109698133610ab7565b816109a35760405162461bcd60e51b815260206004820152600a602482015269115b5c1d1e481b1a5cdd60b21b6044820152606401610377565b60008267ffffffffffffffff8111156109be576109be6113ac565b6040519080825280602002602001820160405280156109e7578160200160208202803683370190505b50905060005b83811015610a66576000858583818110610a0957610a0961162e565b905060400201803603810190610a1f91906115c0565b90506000610a2c82610ec0565b905080848481518110610a4157610a4161162e565b9115156020928302919091019091015250819050610a5e8161165a565b9150506109ed565b507fb4bbe6f3c0e6e858566cfacbc77637515e750c1894f50de1703a4954055eb1f7848483604051610a9a939291906116e4565b60405180910390a150505050565b6001600160a01b03163b151590565b610ac182826107b2565b61038a57610ad9816001600160a01b03166014610f30565b610ae4836020610f30565b604051602001610af592919061176b565b60408051601f198184030181529082905262461bcd60e51b8252610377916004016117e0565b610b2582826107b2565b61038a57600082815260c9602090815260408083206001600160a01b03851684529091529020805460ff19166001179055610b5d3390565b6001600160a01b0316816001600160a01b0316837f2f8788117e7eff1d82e926ec794901d17c78024a50270940304540a733656f0d60405160405180910390a45050565b610bab82826107b2565b1561038a57600082815260c9602090815260408083206001600160a01b0385168085529252808320805460ff1916905551339285917ff6391f5c32d9c69d2a47ea670b442974b53935d1edc7fd64eb21e047a839171b9190a45050565b7fa615a8afb6fffcb8c6809ac0997b5c9c12b8cc97651150f14c8f6203168cff4c61038a8133610ab7565b7f4910fdfa16fed3260ed0e7147f7cc6da11a60208b5b9406d12a635614ffd91435460ff1615610c6657610306836110d3565b826001600160a01b03166352d1902d6040518163ffffffff1660e01b815260040160206040518083038186803b158015610c9f57600080fd5b505afa925050508015610ccf575060408051601f3d908101601f19168201909252610ccc91810190611813565b60015b610d325760405162461bcd60e51b815260206004820152602e60248201527f45524331393637557067726164653a206e657720696d706c656d656e7461746960448201526d6f6e206973206e6f74205555505360901b6064820152608401610377565b6000805160206118b48339815191528114610da15760405162461bcd60e51b815260206004820152602960248201527f45524331393637557067726164653a20756e737570706f727465642070726f786044820152681a58589b195555525160ba1b6064820152608401610377565b5061030683838361116f565b600054610100900460ff16610e185760405162461bcd60e51b815260206004820152602b60248201527f496e697469616c697a61626c653a20636f6e7472616374206973206e6f74206960448201526a6e697469616c697a696e6760a81b6064820152608401610377565b565b805160208201516040516331a9108f60e11b815260048101919091526000916001600160a01b031690636352211e9060240160206040518083038186803b158015610e6457600080fd5b505afa925050508015610e94575060408051601f3d908101601f19168201909252610e919181019061182c565b60015b610ea057506000919050565b6001600160a01b038116610eb75750600092915050565b50506001919050565b6000610ecb82610e1a565b610ed757506000919050565b508051602091820151604080516001600160a01b03909316838501528281019190915280518083038201815260609092018152815191830191909120600090815260fb9092529020805460ff1916600190811790915590565b60606000610f3f836002611849565b610f4a906002611868565b67ffffffffffffffff811115610f6257610f626113ac565b6040519080825280601f01601f191660200182016040528015610f8c576020820181803683370190505b509050600360fc1b81600081518110610fa757610fa761162e565b60200101906001600160f81b031916908160001a905350600f60fb1b81600181518110610fd657610fd661162e565b60200101906001600160f81b031916908160001a9053506000610ffa846002611849565b611005906001611868565b90505b600181111561107d576f181899199a1a9b1b9c1cb0b131b232b360811b85600f16601081106110395761103961162e565b1a60f81b82828151811061104f5761104f61162e565b60200101906001600160f81b031916908160001a90535060049490941c9361107681611880565b9050611008565b5083156110cc5760405162461bcd60e51b815260206004820181905260248201527f537472696e67733a20686578206c656e67746820696e73756666696369656e746044820152606401610377565b9392505050565b6001600160a01b0381163b6111405760405162461bcd60e51b815260206004820152602d60248201527f455243313936373a206e657720696d706c656d656e746174696f6e206973206e60448201526c1bdd08184818dbdb9d1c9858dd609a1b6064820152608401610377565b6000805160206118b483398151915280546001600160a01b0319166001600160a01b0392909216919091179055565b6111788361119a565b6000825111806111855750805b156103065761119483836111da565b50505050565b6111a3816110d3565b6040516001600160a01b038216907fbc7cd75a20ee27fd9adebab32041f755214dbc6bffa90cc0225b39da2e5c2d3b90600090a250565b60606001600160a01b0383163b6112425760405162461bcd60e51b815260206004820152602660248201527f416464726573733a2064656c65676174652063616c6c20746f206e6f6e2d636f6044820152651b9d1c9858dd60d21b6064820152608401610377565b600080846001600160a01b03168460405161125d9190611897565b600060405180830381855af49150503d8060008114611298576040519150601f19603f3d011682016040523d82523d6000602084013e61129d565b606091505b50915091506112c582826040518060600160405280602781526020016118d4602791396112ce565b95945050505050565b606083156112dd5750816110cc565b8251156112ed5782518084602001fd5b8160405162461bcd60e51b815260040161037791906117e0565b60006020828403121561131957600080fd5b81356001600160e01b0319811681146110cc57600080fd5b60006020828403121561134357600080fd5b5035919050565b6001600160a01b038116811461046b57600080fd5b6000806040838503121561137257600080fd5b8235915060208301356113848161134a565b809150509250929050565b6000602082840312156113a157600080fd5b81356110cc8161134a565b634e487b7160e01b600052604160045260246000fd5b604051601f8201601f1916810167ffffffffffffffff811182821017156113eb576113eb6113ac565b604052919050565b6000806040838503121561140657600080fd5b82356114118161134a565b915060208381013567ffffffffffffffff8082111561142f57600080fd5b818601915086601f83011261144357600080fd5b813581811115611455576114556113ac565b611467601f8201601f191685016113c2565b9150808252878482850101111561147d57600080fd5b80848401858401376000848284010152508093505050509250929050565b6000604082840312156114ad57600080fd5b50919050565b600080602083850312156114c657600080fd5b823567ffffffffffffffff808211156114de57600080fd5b818501915085601f8301126114f257600080fd5b81358181111561150157600080fd5b8660208260061b850101111561151657600080fd5b60209290920196919550909350505050565b6020808252602c908201527f46756e6374696f6e206d7573742062652063616c6c6564207468726f7567682060408201526b19195b1959d85d1958d85b1b60a21b606082015260800190565b6020808252602c908201527f46756e6374696f6e206d7573742062652063616c6c6564207468726f7567682060408201526b6163746976652070726f787960a01b606082015260800190565b6000604082840312156115d257600080fd5b6040516040810181811067ffffffffffffffff821117156115f5576115f56113ac565b60405282356116038161134a565b81526020928301359281019290925250919050565b634e487b7160e01b600052602160045260246000fd5b634e487b7160e01b600052603260045260246000fd5b634e487b7160e01b600052601160045260246000fd5b600060001982141561166e5761166e611644565b5060010190565b8183526000602080850194508260005b858110156116bd5781356116988161134a565b6001600160a01b03168752818301358388015260409687019690910190600101611685565b509495945050505050565b6020815260006116dc602083018486611675565b949350505050565b6040815260006116f8604083018587611675565b82810360208481019190915284518083528582019282019060005b81811015611731578451151583529383019391830191600101611713565b509098975050505050505050565b60005b8381101561175a578181015183820152602001611742565b838111156111945750506000910152565b7f416363657373436f6e74726f6c3a206163636f756e74200000000000000000008152600083516117a381601785016020880161173f565b7001034b99036b4b9b9b4b733903937b6329607d1b60179184019182015283516117d481602884016020880161173f565b01602801949350505050565b60208152600082518060208401526117ff81604085016020870161173f565b601f01601f19169190910160400192915050565b60006020828403121561182557600080fd5b5051919050565b60006020828403121561183e57600080fd5b81516110cc8161134a565b600081600019048311821515161561186357611863611644565b500290565b6000821982111561187b5761187b611644565b500190565b60008161188f5761188f611644565b506000190190565b600082516118a981846020870161173f565b919091019291505056fe360894a13ba1a3210667c828492db98dca3e2076cc3735a920a3ca505d382bbc416464726573733a206c6f772d6c6576656c2064656c65676174652063616c6c206661696c6564a26469706673582212200ee9241e4c7a64d145b4325fca4f7f1dfd8dedd60359d7569b1f78e4bd0ad19e64736f6c63430008090033",
  "devdoc": {
    "details": "This contract is upgradeable through UUPS (EIP-1822), and the      the upgrader is the owner of the contract (ownership can be transferred)",
    "events": {
      "AuthenticationRevoked((address,uint256)[])": {
        "details": "emitted when owner revokes authentication for a list of tokens",
        "params": {
          "tokens": "the tokens revoked"
        }
      },
      "ERC721TokensAuthenticated((address,uint256)[],bool[])": {
        "details": "emitted when owner authenticates ERC721 tokens",
        "params": {
          "statuses": "whether the tokens (by index) were authenticated or not",
          "tokens": "the tokens to authenticate"
        }
      }
    },
    "kind": "dev",
    "methods": {
      "authenticateERC721Tokens((address,uint256)[])": {
        "details": "The token should exists to be authenticated",
        "params": {
          "tokens_": "The list of tokens to be potentially authenticated"
        }
      },
      "constructor": {
        "details": "The initializer modifier is to avoid someone initializing      the implementation contract after deployment (see proxy pattern for upgrades)"
      },
      "getRoleAdmin(bytes32)": {
        "details": "Returns the admin role that controls `role`. See {grantRole} and {revokeRole}. To change a role's admin, use {_setRoleAdmin}."
      },
      "grantRole(bytes32,address)": {
        "details": "Grants `role` to `account`. If `account` had not been already granted `role`, emits a {RoleGranted} event. Requirements: - the caller must have ``role``'s admin role."
      },
      "hasRole(bytes32,address)": {
        "details": "Returns `true` if `account` has been granted `role`."
      },
      "initialize()": {
        "details": "Initializes the contract (makes the deployer the owner by default)"
      },
      "isAuthenticated((address,uint256))": {
        "details": "returns false if the token was burned",
        "params": {
          "token_": "the information of the token to query (collection and token id)"
        },
        "returns": {
          "authenticated": "whether the token is authenticated or not"
        }
      },
      "proxiableUUID()": {
        "details": "Implementation of the ERC1822 {proxiableUUID} function. This returns the storage slot used by the implementation. It is used to validate that the this implementation remains valid after an upgrade. IMPORTANT: A proxy pointing at a proxiable contract should not be considered proxiable itself, because this risks bricking a proxy that upgrades to it, by delegating to itself until out of gas. Thus it is critical that this function revert if invoked through a proxy. This is guaranteed by the `notDelegated` modifier."
      },
      "renounceRole(bytes32,address)": {
        "details": "Revokes `role` from the calling account. Roles are often managed via {grantRole} and {revokeRole}: this function's purpose is to provide a mechanism for accounts to lose their privileges if they are compromised (such as when a trusted device is misplaced). If the calling account had been revoked `role`, emits a {RoleRevoked} event. Requirements: - the caller must be `account`."
      },
      "revokeAuthentication((address,uint256)[])": {
        "details": "If the token is not authenticated is just ignored",
        "params": {
          "tokens_": "The list of tokens to be revoked"
        }
      },
      "revokeRole(bytes32,address)": {
        "details": "Revokes `role` from `account`. If `account` had been granted `role`, emits a {RoleRevoked} event. Requirements: - the caller must have ``role``'s admin role."
      },
      "supportsInterface(bytes4)": {
        "details": "See {IERC165-supportsInterface}."
      },
      "upgradeTo(address)": {
        "details": "Upgrade the implementation of the proxy to `newImplementation`. Calls {_authorizeUpgrade}. Emits an {Upgraded} event."
      },
      "upgradeToAndCall(address,bytes)": {
        "details": "Upgrade the implementation of the proxy to `newImplementation`, and subsequently execute the function call encoded in `data`. Calls {_authorizeUpgrade}. Emits an {Upgraded} event."
      }
    },
    "stateVariables": {
      "_nftAuthenticationState": {
        "details": "A mapping to store the current state of one NFT by protocolId      (protocolId = keccak256(abi.encode(collection, tokenId)))"
      }
    },
    "title": "Smart contract where authentication data is stored",
    "version": 1
  },
  "userdoc": {
    "kind": "user",
    "methods": {
      "authenticateERC721Tokens((address,uint256)[])": {
        "notice": "Allows authentication in batches of ERC721 NFTs"
      },
      "isAuthenticated((address,uint256))": {
        "notice": "getter to query if a token is authenticated"
      },
      "revokeAuthentication((address,uint256)[])": {
        "notice": "Allows revoking authentication in batches of ERC721 NFTs"
      }
    },
    "version": 1
  },
  "storageLayout": {
    "storage": [
      {
        "astId": 797,
        "contract": "contracts/NFTAuthenticator.sol:NFTAuthenticator",
        "label": "_initialized",
        "offset": 0,
        "slot": "0",
        "type": "t_bool"
      },
      {
        "astId": 800,
        "contract": "contracts/NFTAuthenticator.sol:NFTAuthenticator",
        "label": "_initializing",
        "offset": 1,
        "slot": "0",
        "type": "t_bool"
      },
      {
        "astId": 779,
        "contract": "contracts/NFTAuthenticator.sol:NFTAuthenticator",
        "label": "__gap",
        "offset": 0,
        "slot": "1",
        "type": "t_array(t_uint256)50_storage"
      },
      {
        "astId": 999,
        "contract": "contracts/NFTAuthenticator.sol:NFTAuthenticator",
        "label": "__gap",
        "offset": 0,
        "slot": "51",
        "type": "t_array(t_uint256)50_storage"
      },
      {
        "astId": 1284,
        "contract": "contracts/NFTAuthenticator.sol:NFTAuthenticator",
        "label": "__gap",
        "offset": 0,
        "slot": "101",
        "type": "t_array(t_uint256)50_storage"
      },
      {
        "astId": 1591,
        "contract": "contracts/NFTAuthenticator.sol:NFTAuthenticator",
        "label": "__gap",
        "offset": 0,
        "slot": "151",
        "type": "t_array(t_uint256)50_storage"
      },
      {
        "astId": 39,
        "contract": "contracts/NFTAuthenticator.sol:NFTAuthenticator",
        "label": "_roles",
        "offset": 0,
        "slot": "201",
        "type": "t_mapping(t_bytes32,t_struct(RoleData)34_storage)"
      },
      {
        "astId": 327,
        "contract": "contracts/NFTAuthenticator.sol:NFTAuthenticator",
        "label": "__gap",
        "offset": 0,
        "slot": "202",
        "type": "t_array(t_uint256)49_storage"
      },
      {
        "astId": 4027,
        "contract": "contracts/NFTAuthenticator.sol:NFTAuthenticator",
        "label": "_nftAuthenticationState",
        "offset": 0,
        "slot": "251",
        "type": "t_mapping(t_bytes32,t_enum(NFTStates)4021)"
      }
    ],
    "types": {
      "t_address": {
        "encoding": "inplace",
        "label": "address",
        "numberOfBytes": "20"
      },
      "t_array(t_uint256)49_storage": {
        "base": "t_uint256",
        "encoding": "inplace",
        "label": "uint256[49]",
        "numberOfBytes": "1568"
      },
      "t_array(t_uint256)50_storage": {
        "base": "t_uint256",
        "encoding": "inplace",
        "label": "uint256[50]",
        "numberOfBytes": "1600"
      },
      "t_bool": {
        "encoding": "inplace",
        "label": "bool",
        "numberOfBytes": "1"
      },
      "t_bytes32": {
        "encoding": "inplace",
        "label": "bytes32",
        "numberOfBytes": "32"
      },
      "t_enum(NFTStates)4021": {
        "encoding": "inplace",
        "label": "enum NFTAuthenticator.NFTStates",
        "numberOfBytes": "1"
      },
      "t_mapping(t_address,t_bool)": {
        "encoding": "mapping",
        "key": "t_address",
        "label": "mapping(address => bool)",
        "numberOfBytes": "32",
        "value": "t_bool"
      },
      "t_mapping(t_bytes32,t_enum(NFTStates)4021)": {
        "encoding": "mapping",
        "key": "t_bytes32",
        "label": "mapping(bytes32 => enum NFTAuthenticator.NFTStates)",
        "numberOfBytes": "32",
        "value": "t_enum(NFTStates)4021"
      },
      "t_mapping(t_bytes32,t_struct(RoleData)34_storage)": {
        "encoding": "mapping",
        "key": "t_bytes32",
        "label": "mapping(bytes32 => struct AccessControlUpgradeable.RoleData)",
        "numberOfBytes": "32",
        "value": "t_struct(RoleData)34_storage"
      },
      "t_struct(RoleData)34_storage": {
        "encoding": "inplace",
        "label": "struct AccessControlUpgradeable.RoleData",
        "members": [
          {
            "astId": 31,
            "contract": "contracts/NFTAuthenticator.sol:NFTAuthenticator",
            "label": "members",
            "offset": 0,
            "slot": "0",
            "type": "t_mapping(t_address,t_bool)"
          },
          {
            "astId": 33,
            "contract": "contracts/NFTAuthenticator.sol:NFTAuthenticator",
            "label": "adminRole",
            "offset": 0,
            "slot": "1",
            "type": "t_bytes32"
          }
        ],
        "numberOfBytes": "64"
      },
      "t_uint256": {
        "encoding": "inplace",
        "label": "uint256",
        "numberOfBytes": "32"
      }
    }
  }
}