{
  "address": "0x2B8aeb06F47a89E7Bb70240ce3c94ddaF26Ec68C",
  "abi": [
    {
      "inputs": [],
      "stateMutability": "nonpayable",
      "type": "constructor"
    },
    {
      "anonymous": false,
      "inputs": [
        {
          "indexed": false,
          "internalType": "address",
          "name": "previousAdmin",
          "type": "address"
        },
        {
          "indexed": false,
          "internalType": "address",
          "name": "newAdmin",
          "type": "address"
        }
      ],
      "name": "AdminChanged",
      "type": "event"
    },
    {
      "anonymous": false,
      "inputs": [
        {
          "indexed": true,
          "internalType": "address",
          "name": "beacon",
          "type": "address"
        }
      ],
      "name": "BeaconUpgraded",
      "type": "event"
    },
    {
      "anonymous": false,
      "inputs": [
        {
          "components": [
            {
              "internalType": "address",
              "name": "collection",
              "type": "address"
            },
            {
              "internalType": "uint256",
              "name": "tokenId",
              "type": "uint256"
            }
          ],
          "indexed": false,
          "internalType": "struct ERC721Token[]",
          "name": "tokens",
          "type": "tuple[]"
        },
        {
          "indexed": false,
          "internalType": "bool[]",
          "name": "statuses",
          "type": "bool[]"
        }
      ],
      "name": "ERC721TokensAuthenticated",
      "type": "event"
    },
    {
      "anonymous": false,
      "inputs": [
        {
          "indexed": true,
          "internalType": "bytes32",
          "name": "role",
          "type": "bytes32"
        },
        {
          "indexed": true,
          "internalType": "bytes32",
          "name": "previousAdminRole",
          "type": "bytes32"
        },
        {
          "indexed": true,
          "internalType": "bytes32",
          "name": "newAdminRole",
          "type": "bytes32"
        }
      ],
      "name": "RoleAdminChanged",
      "type": "event"
    },
    {
      "anonymous": false,
      "inputs": [
        {
          "indexed": true,
          "internalType": "bytes32",
          "name": "role",
          "type": "bytes32"
        },
        {
          "indexed": true,
          "internalType": "address",
          "name": "account",
          "type": "address"
        },
        {
          "indexed": true,
          "internalType": "address",
          "name": "sender",
          "type": "address"
        }
      ],
      "name": "RoleGranted",
      "type": "event"
    },
    {
      "anonymous": false,
      "inputs": [
        {
          "indexed": true,
          "internalType": "bytes32",
          "name": "role",
          "type": "bytes32"
        },
        {
          "indexed": true,
          "internalType": "address",
          "name": "account",
          "type": "address"
        },
        {
          "indexed": true,
          "internalType": "address",
          "name": "sender",
          "type": "address"
        }
      ],
      "name": "RoleRevoked",
      "type": "event"
    },
    {
      "anonymous": false,
      "inputs": [
        {
          "indexed": true,
          "internalType": "address",
          "name": "implementation",
          "type": "address"
        }
      ],
      "name": "Upgraded",
      "type": "event"
    },
    {
      "inputs": [],
      "name": "DEFAULT_ADMIN_ROLE",
      "outputs": [
        {
          "internalType": "bytes32",
          "name": "",
          "type": "bytes32"
        }
      ],
      "stateMutability": "view",
      "type": "function"
    },
    {
      "inputs": [
        {
          "components": [
            {
              "internalType": "address",
              "name": "collection",
              "type": "address"
            },
            {
              "internalType": "uint256",
              "name": "tokenId",
              "type": "uint256"
            }
          ],
          "internalType": "struct ERC721Token[]",
          "name": "tokens_",
          "type": "tuple[]"
        }
      ],
      "name": "authenticateERC721Tokens",
      "outputs": [],
      "stateMutability": "nonpayable",
      "type": "function"
    },
    {
      "inputs": [
        {
          "internalType": "bytes32",
          "name": "role",
          "type": "bytes32"
        }
      ],
      "name": "getRoleAdmin",
      "outputs": [
        {
          "internalType": "bytes32",
          "name": "",
          "type": "bytes32"
        }
      ],
      "stateMutability": "view",
      "type": "function"
    },
    {
      "inputs": [
        {
          "internalType": "bytes32",
          "name": "role",
          "type": "bytes32"
        },
        {
          "internalType": "address",
          "name": "account",
          "type": "address"
        }
      ],
      "name": "grantRole",
      "outputs": [],
      "stateMutability": "nonpayable",
      "type": "function"
    },
    {
      "inputs": [
        {
          "internalType": "bytes32",
          "name": "role",
          "type": "bytes32"
        },
        {
          "internalType": "address",
          "name": "account",
          "type": "address"
        }
      ],
      "name": "hasRole",
      "outputs": [
        {
          "internalType": "bool",
          "name": "",
          "type": "bool"
        }
      ],
      "stateMutability": "view",
      "type": "function"
    },
    {
      "inputs": [],
      "name": "initialize",
      "outputs": [],
      "stateMutability": "nonpayable",
      "type": "function"
    },
    {
      "inputs": [
        {
          "components": [
            {
              "internalType": "address",
              "name": "collection",
              "type": "address"
            },
            {
              "internalType": "uint256",
              "name": "tokenId",
              "type": "uint256"
            }
          ],
          "internalType": "struct ERC721Token",
          "name": "token_",
          "type": "tuple"
        }
      ],
      "name": "isAuthenticated",
      "outputs": [
        {
          "internalType": "bool",
          "name": "authenticated",
          "type": "bool"
        }
      ],
      "stateMutability": "view",
      "type": "function"
    },
    {
      "inputs": [],
      "name": "proxiableUUID",
      "outputs": [
        {
          "internalType": "bytes32",
          "name": "",
          "type": "bytes32"
        }
      ],
      "stateMutability": "view",
      "type": "function"
    },
    {
      "inputs": [
        {
          "internalType": "bytes32",
          "name": "role",
          "type": "bytes32"
        },
        {
          "internalType": "address",
          "name": "account",
          "type": "address"
        }
      ],
      "name": "renounceRole",
      "outputs": [],
      "stateMutability": "nonpayable",
      "type": "function"
    },
    {
      "inputs": [
        {
          "internalType": "bytes32",
          "name": "role",
          "type": "bytes32"
        },
        {
          "internalType": "address",
          "name": "account",
          "type": "address"
        }
      ],
      "name": "revokeRole",
      "outputs": [],
      "stateMutability": "nonpayable",
      "type": "function"
    },
    {
      "inputs": [
        {
          "internalType": "bytes4",
          "name": "interfaceId",
          "type": "bytes4"
        }
      ],
      "name": "supportsInterface",
      "outputs": [
        {
          "internalType": "bool",
          "name": "",
          "type": "bool"
        }
      ],
      "stateMutability": "view",
      "type": "function"
    },
    {
      "inputs": [
        {
          "internalType": "address",
          "name": "newImplementation",
          "type": "address"
        }
      ],
      "name": "upgradeTo",
      "outputs": [],
      "stateMutability": "nonpayable",
      "type": "function"
    },
    {
      "inputs": [
        {
          "internalType": "address",
          "name": "newImplementation",
          "type": "address"
        },
        {
          "internalType": "bytes",
          "name": "data",
          "type": "bytes"
        }
      ],
      "name": "upgradeToAndCall",
      "outputs": [],
      "stateMutability": "payable",
      "type": "function"
    }
  ],
  "transactionHash": "0x29d2c8229dd7d85c45847ac0ab0e74eee1cef588d76038a3a90ed7c613cc4ae0",
  "args": [],
  "numDeployments": 1,
  "solcInputHash": "12396b3bb2f9b3df94e3633807c21385",
  "bytecode": "0x60a0604052306080523480156200001557600080fd5b50600054610100900460ff16620000335760005460ff16156200003d565b6200003d620000e2565b620000a55760405162461bcd60e51b815260206004820152602e60248201527f496e697469616c697a61626c653a20636f6e747261637420697320616c72656160448201526d191e481a5b9a5d1a585b1a5e995960921b606482015260840160405180910390fd5b600054610100900460ff16158015620000c8576000805461ffff19166101011790555b8015620000db576000805461ff00191690555b506200010f565b6000620000fa306200010060201b620009321760201c565b15905090565b6001600160a01b03163b151590565b60805161178a620001476000396000818161035e0152818161039e0152818161043e0152818161047e015261050d015261178a6000f3fe6080604052600436106100c25760003560e01c806352d1902d1161007f57806391d148541161005957806391d14854146101f9578063a217fddf14610219578063d547741f1461022e578063db54d61f1461024e57600080fd5b806352d1902d146101af5780638129fc1c146101c45780638f2c4603146101d957600080fd5b806301ffc9a7146100c7578063248a9ca3146100fc5780632f2ff15d1461013a57806336568abe1461015c5780633659cfe61461017c5780634f1ef2861461019c575b600080fd5b3480156100d357600080fd5b506100e76100e2366004611191565b61026e565b60405190151581526020015b60405180910390f35b34801561010857600080fd5b5061012c6101173660046111bb565b600090815260c9602052604090206001015490565b6040519081526020016100f3565b34801561014657600080fd5b5061015a6101553660046111e9565b6102a5565b005b34801561016857600080fd5b5061015a6101773660046111e9565b6102d0565b34801561018857600080fd5b5061015a610197366004611219565b610353565b61015a6101aa36600461127d565b610433565b3480156101bb57600080fd5b5061012c610500565b3480156101d057600080fd5b5061015a6105b3565b3480156101e557600080fd5b506100e76101f4366004611325565b6106da565b34801561020557600080fd5b506100e76102143660046111e9565b610777565b34801561022557600080fd5b5061012c600081565b34801561023a57600080fd5b5061015a6102493660046111e9565b6107a2565b34801561025a57600080fd5b5061015a61026936600461133d565b6107c8565b60006001600160e01b03198216637965db0b60e01b148061029f57506301ffc9a760e01b6001600160e01b03198316145b92915050565b600082815260c960205260409020600101546102c18133610941565b6102cb83836109a5565b505050565b6001600160a01b03811633146103455760405162461bcd60e51b815260206004820152602f60248201527f416363657373436f6e74726f6c3a2063616e206f6e6c792072656e6f756e636560448201526e103937b632b9903337b91039b2b63360891b60648201526084015b60405180910390fd5b61034f8282610a2b565b5050565b306001600160a01b037f000000000000000000000000000000000000000000000000000000000000000016141561039c5760405162461bcd60e51b815260040161033c906113b2565b7f00000000000000000000000000000000000000000000000000000000000000006001600160a01b03166103e560008051602061170e833981519152546001600160a01b031690565b6001600160a01b03161461040b5760405162461bcd60e51b815260040161033c906113fe565b61041481610a92565b6040805160008082526020820190925261043091839190610abd565b50565b306001600160a01b037f000000000000000000000000000000000000000000000000000000000000000016141561047c5760405162461bcd60e51b815260040161033c906113b2565b7f00000000000000000000000000000000000000000000000000000000000000006001600160a01b03166104c560008051602061170e833981519152546001600160a01b031690565b6001600160a01b0316146104eb5760405162461bcd60e51b815260040161033c906113fe565b6104f482610a92565b61034f82826001610abd565b6000306001600160a01b037f000000000000000000000000000000000000000000000000000000000000000016146105a05760405162461bcd60e51b815260206004820152603860248201527f555550535570677261646561626c653a206d757374206e6f742062652063616c60448201527f6c6564207468726f7567682064656c656761746563616c6c0000000000000000606482015260840161033c565b5060008051602061170e83398151915290565b600054610100900460ff166105ce5760005460ff16156105d2565b303b155b6106355760405162461bcd60e51b815260206004820152602e60248201527f496e697469616c697a61626c653a20636f6e747261637420697320616c72656160448201526d191e481a5b9a5d1a585b1a5e995960921b606482015260840161033c565b600054610100900460ff16158015610657576000805461ffff19166101011790555b61065f610c37565b610667610c37565b6106726000336109a5565b61069c7fa615a8afb6fffcb8c6809ac0997b5c9c12b8cc97651150f14c8f6203168cff4c336109a5565b6106c67f2edff3fe7aa0cf904c1e3fb0e6088aff4ae10ca6c8718f016676826633123850336109a5565b8015610430576000805461ff001916905550565b60006106f36106ee3684900384018461144a565b610ca4565b6106ff57506000919050565b600061070e6020840184611219565b604080516001600160a01b039092166020838101919091528501359082015260600160408051601f19818403018152919052805160209091012090506001600082815260fb602052604090205460ff16600181111561076f5761076f6114a2565b149392505050565b600091825260c9602090815260408084206001600160a01b0393909316845291905290205460ff1690565b600082815260c960205260409020600101546107be8133610941565b6102cb8383610a2b565b7f2edff3fe7aa0cf904c1e3fb0e6088aff4ae10ca6c8718f0166768266331238506107f38133610941565b8161082d5760405162461bcd60e51b815260206004820152600a602482015269115b5c1d1e481b1a5cdd60b21b604482015260640161033c565b60008267ffffffffffffffff81111561084857610848611236565b604051908082528060200260200182016040528015610871578160200160208202803683370190505b50905060005b838110156108f0576000858583818110610893576108936114b8565b9050604002018036038101906108a9919061144a565b905060006108b682610d4a565b9050808484815181106108cb576108cb6114b8565b91151560209283029190910190910152508190506108e8816114e4565b915050610877565b507fb4bbe6f3c0e6e858566cfacbc77637515e750c1894f50de1703a4954055eb1f7848483604051610924939291906114ff565b60405180910390a150505050565b6001600160a01b03163b151590565b61094b8282610777565b61034f57610963816001600160a01b03166014610dba565b61096e836020610dba565b60405160200161097f9291906115c5565b60408051601f198184030181529082905262461bcd60e51b825261033c9160040161163a565b6109af8282610777565b61034f57600082815260c9602090815260408083206001600160a01b03851684529091529020805460ff191660011790556109e73390565b6001600160a01b0316816001600160a01b0316837f2f8788117e7eff1d82e926ec794901d17c78024a50270940304540a733656f0d60405160405180910390a45050565b610a358282610777565b1561034f57600082815260c9602090815260408083206001600160a01b0385168085529252808320805460ff1916905551339285917ff6391f5c32d9c69d2a47ea670b442974b53935d1edc7fd64eb21e047a839171b9190a45050565b7fa615a8afb6fffcb8c6809ac0997b5c9c12b8cc97651150f14c8f6203168cff4c61034f8133610941565b7f4910fdfa16fed3260ed0e7147f7cc6da11a60208b5b9406d12a635614ffd91435460ff1615610af0576102cb83610f5d565b826001600160a01b03166352d1902d6040518163ffffffff1660e01b815260040160206040518083038186803b158015610b2957600080fd5b505afa925050508015610b59575060408051601f3d908101601f19168201909252610b569181019061166d565b60015b610bbc5760405162461bcd60e51b815260206004820152602e60248201527f45524331393637557067726164653a206e657720696d706c656d656e7461746960448201526d6f6e206973206e6f74205555505360901b606482015260840161033c565b60008051602061170e8339815191528114610c2b5760405162461bcd60e51b815260206004820152602960248201527f45524331393637557067726164653a20756e737570706f727465642070726f786044820152681a58589b195555525160ba1b606482015260840161033c565b506102cb838383610ff9565b600054610100900460ff16610ca25760405162461bcd60e51b815260206004820152602b60248201527f496e697469616c697a61626c653a20636f6e7472616374206973206e6f74206960448201526a6e697469616c697a696e6760a81b606482015260840161033c565b565b805160208201516040516331a9108f60e11b815260048101919091526000916001600160a01b031690636352211e9060240160206040518083038186803b158015610cee57600080fd5b505afa925050508015610d1e575060408051601f3d908101601f19168201909252610d1b91810190611686565b60015b610d2a57506000919050565b6001600160a01b038116610d415750600092915050565b50506001919050565b6000610d5582610ca4565b610d6157506000919050565b508051602091820151604080516001600160a01b03909316838501528281019190915280518083038201815260609092018152815191830191909120600090815260fb9092529020805460ff1916600190811790915590565b60606000610dc98360026116a3565b610dd49060026116c2565b67ffffffffffffffff811115610dec57610dec611236565b6040519080825280601f01601f191660200182016040528015610e16576020820181803683370190505b509050600360fc1b81600081518110610e3157610e316114b8565b60200101906001600160f81b031916908160001a905350600f60fb1b81600181518110610e6057610e606114b8565b60200101906001600160f81b031916908160001a9053506000610e848460026116a3565b610e8f9060016116c2565b90505b6001811115610f07576f181899199a1a9b1b9c1cb0b131b232b360811b85600f1660108110610ec357610ec36114b8565b1a60f81b828281518110610ed957610ed96114b8565b60200101906001600160f81b031916908160001a90535060049490941c93610f00816116da565b9050610e92565b508315610f565760405162461bcd60e51b815260206004820181905260248201527f537472696e67733a20686578206c656e67746820696e73756666696369656e74604482015260640161033c565b9392505050565b6001600160a01b0381163b610fca5760405162461bcd60e51b815260206004820152602d60248201527f455243313936373a206e657720696d706c656d656e746174696f6e206973206e60448201526c1bdd08184818dbdb9d1c9858dd609a1b606482015260840161033c565b60008051602061170e83398151915280546001600160a01b0319166001600160a01b0392909216919091179055565b61100283611024565b60008251118061100f5750805b156102cb5761101e8383611064565b50505050565b61102d81610f5d565b6040516001600160a01b038216907fbc7cd75a20ee27fd9adebab32041f755214dbc6bffa90cc0225b39da2e5c2d3b90600090a250565b60606001600160a01b0383163b6110cc5760405162461bcd60e51b815260206004820152602660248201527f416464726573733a2064656c65676174652063616c6c20746f206e6f6e2d636f6044820152651b9d1c9858dd60d21b606482015260840161033c565b600080846001600160a01b0316846040516110e791906116f1565b600060405180830381855af49150503d8060008114611122576040519150601f19603f3d011682016040523d82523d6000602084013e611127565b606091505b509150915061114f828260405180606001604052806027815260200161172e60279139611158565b95945050505050565b60608315611167575081610f56565b8251156111775782518084602001fd5b8160405162461bcd60e51b815260040161033c919061163a565b6000602082840312156111a357600080fd5b81356001600160e01b031981168114610f5657600080fd5b6000602082840312156111cd57600080fd5b5035919050565b6001600160a01b038116811461043057600080fd5b600080604083850312156111fc57600080fd5b82359150602083013561120e816111d4565b809150509250929050565b60006020828403121561122b57600080fd5b8135610f56816111d4565b634e487b7160e01b600052604160045260246000fd5b604051601f8201601f1916810167ffffffffffffffff8111828210171561127557611275611236565b604052919050565b6000806040838503121561129057600080fd5b823561129b816111d4565b915060208381013567ffffffffffffffff808211156112b957600080fd5b818601915086601f8301126112cd57600080fd5b8135818111156112df576112df611236565b6112f1601f8201601f1916850161124c565b9150808252878482850101111561130757600080fd5b80848401858401376000848284010152508093505050509250929050565b60006040828403121561133757600080fd5b50919050565b6000806020838503121561135057600080fd5b823567ffffffffffffffff8082111561136857600080fd5b818501915085601f83011261137c57600080fd5b81358181111561138b57600080fd5b8660208260061b85010111156113a057600080fd5b60209290920196919550909350505050565b6020808252602c908201527f46756e6374696f6e206d7573742062652063616c6c6564207468726f7567682060408201526b19195b1959d85d1958d85b1b60a21b606082015260800190565b6020808252602c908201527f46756e6374696f6e206d7573742062652063616c6c6564207468726f7567682060408201526b6163746976652070726f787960a01b606082015260800190565b60006040828403121561145c57600080fd5b6040516040810181811067ffffffffffffffff8211171561147f5761147f611236565b604052823561148d816111d4565b81526020928301359281019290925250919050565b634e487b7160e01b600052602160045260246000fd5b634e487b7160e01b600052603260045260246000fd5b634e487b7160e01b600052601160045260246000fd5b60006000198214156114f8576114f86114ce565b5060010190565b60408082528181018490526000908560608401835b8781101561154c578235611527816111d4565b6001600160a01b03168252602083810135908301529183019190830190600101611514565b50602092508481038386015280915085518082528382019250838701915060005b8181101561158b57825115158452928401929184019160010161156d565b509198975050505050505050565b60005b838110156115b457818101518382015260200161159c565b8381111561101e5750506000910152565b7f416363657373436f6e74726f6c3a206163636f756e74200000000000000000008152600083516115fd816017850160208801611599565b7001034b99036b4b9b9b4b733903937b6329607d1b601791840191820152835161162e816028840160208801611599565b01602801949350505050565b6020815260008251806020840152611659816040850160208701611599565b601f01601f19169190910160400192915050565b60006020828403121561167f57600080fd5b5051919050565b60006020828403121561169857600080fd5b8151610f56816111d4565b60008160001904831182151516156116bd576116bd6114ce565b500290565b600082198211156116d5576116d56114ce565b500190565b6000816116e9576116e96114ce565b506000190190565b60008251611703818460208701611599565b919091019291505056fe360894a13ba1a3210667c828492db98dca3e2076cc3735a920a3ca505d382bbc416464726573733a206c6f772d6c6576656c2064656c65676174652063616c6c206661696c6564a264697066735822122042e2c6dc9e43ffb6514122ab09e94be309cb8f040ba45988fbea2dce241f4efa64736f6c63430008090033",
  "devdoc": {
    "details": "This contract is upgradeable through UUPS (EIP-1822), and the      the upgrader is the owner of the contract (ownership can be transferred)",
    "events": {
      "ERC721TokensAuthenticated((address,uint256)[],bool[])": {
        "details": "emitted when owner authenticates ERC721 tokens",
        "params": {
          "statuses": "whether the tokens (by index) were authenticated or not",
          "tokens": "the tokens to authenticate"
        }
      }
    },
    "kind": "dev",
    "methods": {
      "authenticateERC721Tokens((address,uint256)[])": {
        "details": "The token should exists to be authenticated",
        "params": {
          "tokens_": "The list of tokens to be potentially authenticated"
        }
      },
      "constructor": {
        "details": "The initializer modifier is to avoid someone initializing      the implementation contract after deployment (see proxy pattern for upgrades)"
      },
      "getRoleAdmin(bytes32)": {
        "details": "Returns the admin role that controls `role`. See {grantRole} and {revokeRole}. To change a role's admin, use {_setRoleAdmin}."
      },
      "grantRole(bytes32,address)": {
        "details": "Grants `role` to `account`. If `account` had not been already granted `role`, emits a {RoleGranted} event. Requirements: - the caller must have ``role``'s admin role."
      },
      "hasRole(bytes32,address)": {
        "details": "Returns `true` if `account` has been granted `role`."
      },
      "initialize()": {
        "details": "Initializes the contract (makes the deployer the owner by default)"
      },
      "isAuthenticated((address,uint256))": {
        "details": "returns false if the token was burned",
        "params": {
          "token_": "the information of the token to query (collection and token id)"
        },
        "returns": {
          "authenticated": "whether the token is authenticated or not"
        }
      },
      "proxiableUUID()": {
        "details": "Implementation of the ERC1822 {proxiableUUID} function. This returns the storage slot used by the implementation. It is used to validate that the this implementation remains valid after an upgrade. IMPORTANT: A proxy pointing at a proxiable contract should not be considered proxiable itself, because this risks bricking a proxy that upgrades to it, by delegating to itself until out of gas. Thus it is critical that this function revert if invoked through a proxy. This is guaranteed by the `notDelegated` modifier."
      },
      "renounceRole(bytes32,address)": {
        "details": "Revokes `role` from the calling account. Roles are often managed via {grantRole} and {revokeRole}: this function's purpose is to provide a mechanism for accounts to lose their privileges if they are compromised (such as when a trusted device is misplaced). If the calling account had been revoked `role`, emits a {RoleRevoked} event. Requirements: - the caller must be `account`."
      },
      "revokeRole(bytes32,address)": {
        "details": "Revokes `role` from `account`. If `account` had been granted `role`, emits a {RoleRevoked} event. Requirements: - the caller must have ``role``'s admin role."
      },
      "supportsInterface(bytes4)": {
        "details": "See {IERC165-supportsInterface}."
      },
      "upgradeTo(address)": {
        "details": "Upgrade the implementation of the proxy to `newImplementation`. Calls {_authorizeUpgrade}. Emits an {Upgraded} event."
      },
      "upgradeToAndCall(address,bytes)": {
        "details": "Upgrade the implementation of the proxy to `newImplementation`, and subsequently execute the function call encoded in `data`. Calls {_authorizeUpgrade}. Emits an {Upgraded} event."
      }
    },
    "stateVariables": {
      "_nftAuthenticationState": {
        "details": "A mapping to store the current state of one NFT by protocolId      (protocolId = keccak256(abi.encode(collection, tokenId)))"
      }
    },
    "title": "Smart contract where authentication data is stored",
    "version": 1
  },
  "userdoc": {
    "kind": "user",
    "methods": {
      "authenticateERC721Tokens((address,uint256)[])": {
        "notice": "Allows authentication in batches of ERC721 NFTs"
      },
      "isAuthenticated((address,uint256))": {
        "notice": "getter to query if a token is authenticated"
      }
    },
    "version": 1
  },
  "storageLayout": {
    "storage": [
      {
        "astId": 797,
        "contract": "contracts/NFTAuthenticator.sol:NFTAuthenticator",
        "label": "_initialized",
        "offset": 0,
        "slot": "0",
        "type": "t_bool"
      },
      {
        "astId": 800,
        "contract": "contracts/NFTAuthenticator.sol:NFTAuthenticator",
        "label": "_initializing",
        "offset": 1,
        "slot": "0",
        "type": "t_bool"
      },
      {
        "astId": 779,
        "contract": "contracts/NFTAuthenticator.sol:NFTAuthenticator",
        "label": "__gap",
        "offset": 0,
        "slot": "1",
        "type": "t_array(t_uint256)50_storage"
      },
      {
        "astId": 999,
        "contract": "contracts/NFTAuthenticator.sol:NFTAuthenticator",
        "label": "__gap",
        "offset": 0,
        "slot": "51",
        "type": "t_array(t_uint256)50_storage"
      },
      {
        "astId": 1284,
        "contract": "contracts/NFTAuthenticator.sol:NFTAuthenticator",
        "label": "__gap",
        "offset": 0,
        "slot": "101",
        "type": "t_array(t_uint256)50_storage"
      },
      {
        "astId": 1591,
        "contract": "contracts/NFTAuthenticator.sol:NFTAuthenticator",
        "label": "__gap",
        "offset": 0,
        "slot": "151",
        "type": "t_array(t_uint256)50_storage"
      },
      {
        "astId": 39,
        "contract": "contracts/NFTAuthenticator.sol:NFTAuthenticator",
        "label": "_roles",
        "offset": 0,
        "slot": "201",
        "type": "t_mapping(t_bytes32,t_struct(RoleData)34_storage)"
      },
      {
        "astId": 327,
        "contract": "contracts/NFTAuthenticator.sol:NFTAuthenticator",
        "label": "__gap",
        "offset": 0,
        "slot": "202",
        "type": "t_array(t_uint256)49_storage"
      },
      {
        "astId": 3825,
        "contract": "contracts/NFTAuthenticator.sol:NFTAuthenticator",
        "label": "_nftAuthenticationState",
        "offset": 0,
        "slot": "251",
        "type": "t_mapping(t_bytes32,t_enum(NFTStates)3819)"
      }
    ],
    "types": {
      "t_address": {
        "encoding": "inplace",
        "label": "address",
        "numberOfBytes": "20"
      },
      "t_array(t_uint256)49_storage": {
        "base": "t_uint256",
        "encoding": "inplace",
        "label": "uint256[49]",
        "numberOfBytes": "1568"
      },
      "t_array(t_uint256)50_storage": {
        "base": "t_uint256",
        "encoding": "inplace",
        "label": "uint256[50]",
        "numberOfBytes": "1600"
      },
      "t_bool": {
        "encoding": "inplace",
        "label": "bool",
        "numberOfBytes": "1"
      },
      "t_bytes32": {
        "encoding": "inplace",
        "label": "bytes32",
        "numberOfBytes": "32"
      },
      "t_enum(NFTStates)3819": {
        "encoding": "inplace",
        "label": "enum NFTAuthenticator.NFTStates",
        "numberOfBytes": "1"
      },
      "t_mapping(t_address,t_bool)": {
        "encoding": "mapping",
        "key": "t_address",
        "label": "mapping(address => bool)",
        "numberOfBytes": "32",
        "value": "t_bool"
      },
      "t_mapping(t_bytes32,t_enum(NFTStates)3819)": {
        "encoding": "mapping",
        "key": "t_bytes32",
        "label": "mapping(bytes32 => enum NFTAuthenticator.NFTStates)",
        "numberOfBytes": "32",
        "value": "t_enum(NFTStates)3819"
      },
      "t_mapping(t_bytes32,t_struct(RoleData)34_storage)": {
        "encoding": "mapping",
        "key": "t_bytes32",
        "label": "mapping(bytes32 => struct AccessControlUpgradeable.RoleData)",
        "numberOfBytes": "32",
        "value": "t_struct(RoleData)34_storage"
      },
      "t_struct(RoleData)34_storage": {
        "encoding": "inplace",
        "label": "struct AccessControlUpgradeable.RoleData",
        "members": [
          {
            "astId": 31,
            "contract": "contracts/NFTAuthenticator.sol:NFTAuthenticator",
            "label": "members",
            "offset": 0,
            "slot": "0",
            "type": "t_mapping(t_address,t_bool)"
          },
          {
            "astId": 33,
            "contract": "contracts/NFTAuthenticator.sol:NFTAuthenticator",
            "label": "adminRole",
            "offset": 0,
            "slot": "1",
            "type": "t_bytes32"
          }
        ],
        "numberOfBytes": "64"
      },
      "t_uint256": {
        "encoding": "inplace",
        "label": "uint256",
        "numberOfBytes": "32"
      }
    }
  }
}