{
  "address": "0xb7433e4DE3CEa0481ED42797a1E1191cAAcAEf73",
  "abi": [
    {
      "inputs": [],
      "stateMutability": "nonpayable",
      "type": "constructor"
    },
    {
      "anonymous": false,
      "inputs": [
        {
          "indexed": false,
          "internalType": "address",
          "name": "previousAdmin",
          "type": "address"
        },
        {
          "indexed": false,
          "internalType": "address",
          "name": "newAdmin",
          "type": "address"
        }
      ],
      "name": "AdminChanged",
      "type": "event"
    },
    {
      "anonymous": false,
      "inputs": [
        {
          "indexed": true,
          "internalType": "address",
          "name": "beacon",
          "type": "address"
        }
      ],
      "name": "BeaconUpgraded",
      "type": "event"
    },
    {
      "anonymous": false,
      "inputs": [
        {
          "components": [
            {
              "internalType": "address",
              "name": "collection",
              "type": "address"
            },
            {
              "internalType": "uint256",
              "name": "tokenId",
              "type": "uint256"
            }
          ],
          "indexed": false,
          "internalType": "struct ERC721Token[]",
          "name": "tokens",
          "type": "tuple[]"
        },
        {
          "indexed": false,
          "internalType": "bool[]",
          "name": "statuses",
          "type": "bool[]"
        }
      ],
      "name": "ERC721TokensAuthenticated",
      "type": "event"
    },
    {
      "anonymous": false,
      "inputs": [
        {
          "indexed": true,
          "internalType": "address",
          "name": "previousOwner",
          "type": "address"
        },
        {
          "indexed": true,
          "internalType": "address",
          "name": "newOwner",
          "type": "address"
        }
      ],
      "name": "OwnershipTransferred",
      "type": "event"
    },
    {
      "anonymous": false,
      "inputs": [
        {
          "indexed": true,
          "internalType": "address",
          "name": "implementation",
          "type": "address"
        }
      ],
      "name": "Upgraded",
      "type": "event"
    },
    {
      "inputs": [
        {
          "components": [
            {
              "internalType": "address",
              "name": "collection",
              "type": "address"
            },
            {
              "internalType": "uint256",
              "name": "tokenId",
              "type": "uint256"
            }
          ],
          "internalType": "struct ERC721Token[]",
          "name": "tokens_",
          "type": "tuple[]"
        }
      ],
      "name": "authenticateERC721Tokens",
      "outputs": [],
      "stateMutability": "nonpayable",
      "type": "function"
    },
    {
      "inputs": [],
      "name": "initialize",
      "outputs": [],
      "stateMutability": "nonpayable",
      "type": "function"
    },
    {
      "inputs": [
        {
          "components": [
            {
              "internalType": "address",
              "name": "collection",
              "type": "address"
            },
            {
              "internalType": "uint256",
              "name": "tokenId",
              "type": "uint256"
            }
          ],
          "internalType": "struct ERC721Token",
          "name": "token_",
          "type": "tuple"
        }
      ],
      "name": "isAuthenticated",
      "outputs": [
        {
          "internalType": "bool",
          "name": "authenticated",
          "type": "bool"
        }
      ],
      "stateMutability": "view",
      "type": "function"
    },
    {
      "inputs": [],
      "name": "owner",
      "outputs": [
        {
          "internalType": "address",
          "name": "",
          "type": "address"
        }
      ],
      "stateMutability": "view",
      "type": "function"
    },
    {
      "inputs": [],
      "name": "proxiableUUID",
      "outputs": [
        {
          "internalType": "bytes32",
          "name": "",
          "type": "bytes32"
        }
      ],
      "stateMutability": "view",
      "type": "function"
    },
    {
      "inputs": [],
      "name": "renounceOwnership",
      "outputs": [],
      "stateMutability": "nonpayable",
      "type": "function"
    },
    {
      "inputs": [
        {
          "internalType": "address",
          "name": "newOwner",
          "type": "address"
        }
      ],
      "name": "transferOwnership",
      "outputs": [],
      "stateMutability": "nonpayable",
      "type": "function"
    },
    {
      "inputs": [
        {
          "internalType": "address",
          "name": "newImplementation",
          "type": "address"
        }
      ],
      "name": "upgradeTo",
      "outputs": [],
      "stateMutability": "nonpayable",
      "type": "function"
    },
    {
      "inputs": [
        {
          "internalType": "address",
          "name": "newImplementation",
          "type": "address"
        },
        {
          "internalType": "bytes",
          "name": "data",
          "type": "bytes"
        }
      ],
      "name": "upgradeToAndCall",
      "outputs": [],
      "stateMutability": "payable",
      "type": "function"
    }
  ],
  "transactionHash": "0x2161cc5e5fdc84386f8af64dfb0ab8371f00f6359aeb9c80cc668777f60fabea",
  "args": [],
  "numDeployments": 1,
  "solcInputHash": "4ca9a4124aa13d065cbe56b6f9995190",
  "bytecode": "0x60a06040523060805234801561001457600080fd5b50600054610100900460ff166100305760005460ff1615610038565b6100386100d9565b61009f5760405162461bcd60e51b815260206004820152602e60248201527f496e697469616c697a61626c653a20636f6e747261637420697320616c72656160448201526d191e481a5b9a5d1a585b1a5e995960921b606482015260840160405180910390fd5b600054610100900460ff161580156100c1576000805461ffff19166101011790555b80156100d3576000805461ff00191690555b50610103565b60006100ee306100f460201b6107b21760201c565b15905090565b6001600160a01b03163b151590565b6080516112ce6200013b600039600081816101b5015281816101fe0152818161029e015281816102de015261037101526112ce6000f3fe6080604052600436106100865760003560e01c80638129fc1c116100595780638129fc1c146100fd5780638da5cb5b146101125780638f2c46031461013a578063db54d61f1461016a578063f2fde38b1461018a57600080fd5b80633659cfe61461008b5780634f1ef286146100ad57806352d1902d146100c0578063715018a6146100e8575b600080fd5b34801561009757600080fd5b506100ab6100a6366004610da8565b6101aa565b005b6100ab6100bb366004610e0c565b610293565b3480156100cc57600080fd5b506100d5610364565b6040519081526020015b60405180910390f35b3480156100f457600080fd5b506100ab610417565b34801561010957600080fd5b506100ab61044d565b34801561011e57600080fd5b506097546040516001600160a01b0390911681526020016100df565b34801561014657600080fd5b5061015a610155366004610eb4565b610515565b60405190151581526020016100df565b34801561017657600080fd5b506100ab610185366004610ecc565b6105b2565b34801561019657600080fd5b506100ab6101a5366004610da8565b61071a565b306001600160a01b037f00000000000000000000000000000000000000000000000000000000000000001614156101fc5760405162461bcd60e51b81526004016101f390610f41565b60405180910390fd5b7f00000000000000000000000000000000000000000000000000000000000000006001600160a01b0316610245600080516020611252833981519152546001600160a01b031690565b6001600160a01b03161461026b5760405162461bcd60e51b81526004016101f390610f8d565b610274816107c1565b60408051600080825260208201909252610290918391906107eb565b50565b306001600160a01b037f00000000000000000000000000000000000000000000000000000000000000001614156102dc5760405162461bcd60e51b81526004016101f390610f41565b7f00000000000000000000000000000000000000000000000000000000000000006001600160a01b0316610325600080516020611252833981519152546001600160a01b031690565b6001600160a01b03161461034b5760405162461bcd60e51b81526004016101f390610f8d565b610354826107c1565b610360828260016107eb565b5050565b6000306001600160a01b037f000000000000000000000000000000000000000000000000000000000000000016146104045760405162461bcd60e51b815260206004820152603860248201527f555550535570677261646561626c653a206d757374206e6f742062652063616c60448201527f6c6564207468726f7567682064656c656761746563616c6c000000000000000060648201526084016101f3565b5060008051602061125283398151915290565b6097546001600160a01b031633146104415760405162461bcd60e51b81526004016101f390610fd9565b61044b600061096a565b565b600054610100900460ff166104685760005460ff161561046c565b303b155b6104cf5760405162461bcd60e51b815260206004820152602e60248201527f496e697469616c697a61626c653a20636f6e747261637420697320616c72656160448201526d191e481a5b9a5d1a585b1a5e995960921b60648201526084016101f3565b600054610100900460ff161580156104f1576000805461ffff19166101011790555b6104f96109bc565b6105016109eb565b8015610290576000805461ff001916905550565b600061052e6105293684900384018461100e565b610a12565b61053a57506000919050565b60006105496020840184610da8565b604080516001600160a01b039092166020838101919091528501359082015260600160408051601f19818403018152919052805160209091012090506001600082815260c9602052604090205460ff1660018111156105aa576105aa611066565b149392505050565b6097546001600160a01b031633146105dc5760405162461bcd60e51b81526004016101f390610fd9565b806106165760405162461bcd60e51b815260206004820152600a602482015269115b5c1d1e481b1a5cdd60b21b60448201526064016101f3565b60008167ffffffffffffffff81111561063157610631610dc5565b60405190808252806020026020018201604052801561065a578160200160208202803683370190505b50905060005b828110156106d957600084848381811061067c5761067c61107c565b905060400201803603810190610692919061100e565b9050600061069f82610ab8565b9050808484815181106106b4576106b461107c565b91151560209283029190910190910152508190506106d181611092565b915050610660565b507fb4bbe6f3c0e6e858566cfacbc77637515e750c1894f50de1703a4954055eb1f783838360405161070d939291906110bb565b60405180910390a1505050565b6097546001600160a01b031633146107445760405162461bcd60e51b81526004016101f390610fd9565b6001600160a01b0381166107a95760405162461bcd60e51b815260206004820152602660248201527f4f776e61626c653a206e6577206f776e657220697320746865207a65726f206160448201526564647265737360d01b60648201526084016101f3565b6102908161096a565b6001600160a01b03163b151590565b6097546001600160a01b031633146102905760405162461bcd60e51b81526004016101f390610fd9565b7f4910fdfa16fed3260ed0e7147f7cc6da11a60208b5b9406d12a635614ffd91435460ff16156108235761081e83610b28565b505050565b826001600160a01b03166352d1902d6040518163ffffffff1660e01b815260040160206040518083038186803b15801561085c57600080fd5b505afa92505050801561088c575060408051601f3d908101601f1916820190925261088991810190611155565b60015b6108ef5760405162461bcd60e51b815260206004820152602e60248201527f45524331393637557067726164653a206e657720696d706c656d656e7461746960448201526d6f6e206973206e6f74205555505360901b60648201526084016101f3565b600080516020611252833981519152811461095e5760405162461bcd60e51b815260206004820152602960248201527f45524331393637557067726164653a20756e737570706f727465642070726f786044820152681a58589b195555525160ba1b60648201526084016101f3565b5061081e838383610bc4565b609780546001600160a01b038381166001600160a01b0319831681179093556040519116919082907f8be0079c531659141344cd1fd0a4f28419497f9722a3daafe3b4186f6b6457e090600090a35050565b600054610100900460ff166109e35760405162461bcd60e51b81526004016101f39061116e565b61044b610bef565b600054610100900460ff1661044b5760405162461bcd60e51b81526004016101f39061116e565b805160208201516040516331a9108f60e11b815260048101919091526000916001600160a01b031690636352211e9060240160206040518083038186803b158015610a5c57600080fd5b505afa925050508015610a8c575060408051601f3d908101601f19168201909252610a89918101906111b9565b60015b610a9857506000919050565b6001600160a01b038116610aaf5750600092915050565b50506001919050565b6000610ac382610a12565b610acf57506000919050565b508051602091820151604080516001600160a01b03909316838501528281019190915280518083038201815260609092018152815191830191909120600090815260c99092529020805460ff1916600190811790915590565b6001600160a01b0381163b610b955760405162461bcd60e51b815260206004820152602d60248201527f455243313936373a206e657720696d706c656d656e746174696f6e206973206e60448201526c1bdd08184818dbdb9d1c9858dd609a1b60648201526084016101f3565b60008051602061125283398151915280546001600160a01b0319166001600160a01b0392909216919091179055565b610bcd83610c1f565b600082511180610bda5750805b1561081e57610be98383610c5f565b50505050565b600054610100900460ff16610c165760405162461bcd60e51b81526004016101f39061116e565b61044b3361096a565b610c2881610b28565b6040516001600160a01b038216907fbc7cd75a20ee27fd9adebab32041f755214dbc6bffa90cc0225b39da2e5c2d3b90600090a250565b60606001600160a01b0383163b610cc75760405162461bcd60e51b815260206004820152602660248201527f416464726573733a2064656c65676174652063616c6c20746f206e6f6e2d636f6044820152651b9d1c9858dd60d21b60648201526084016101f3565b600080846001600160a01b031684604051610ce29190611202565b600060405180830381855af49150503d8060008114610d1d576040519150601f19603f3d011682016040523d82523d6000602084013e610d22565b606091505b5091509150610d4a828260405180606001604052806027815260200161127260279139610d53565b95945050505050565b60608315610d62575081610d8c565b825115610d725782518084602001fd5b8160405162461bcd60e51b81526004016101f3919061121e565b9392505050565b6001600160a01b038116811461029057600080fd5b600060208284031215610dba57600080fd5b8135610d8c81610d93565b634e487b7160e01b600052604160045260246000fd5b604051601f8201601f1916810167ffffffffffffffff81118282101715610e0457610e04610dc5565b604052919050565b60008060408385031215610e1f57600080fd5b8235610e2a81610d93565b915060208381013567ffffffffffffffff80821115610e4857600080fd5b818601915086601f830112610e5c57600080fd5b813581811115610e6e57610e6e610dc5565b610e80601f8201601f19168501610ddb565b91508082528784828501011115610e9657600080fd5b80848401858401376000848284010152508093505050509250929050565b600060408284031215610ec657600080fd5b50919050565b60008060208385031215610edf57600080fd5b823567ffffffffffffffff80821115610ef757600080fd5b818501915085601f830112610f0b57600080fd5b813581811115610f1a57600080fd5b8660208260061b8501011115610f2f57600080fd5b60209290920196919550909350505050565b6020808252602c908201527f46756e6374696f6e206d7573742062652063616c6c6564207468726f7567682060408201526b19195b1959d85d1958d85b1b60a21b606082015260800190565b6020808252602c908201527f46756e6374696f6e206d7573742062652063616c6c6564207468726f7567682060408201526b6163746976652070726f787960a01b606082015260800190565b6020808252818101527f4f776e61626c653a2063616c6c6572206973206e6f7420746865206f776e6572604082015260600190565b60006040828403121561102057600080fd5b6040516040810181811067ffffffffffffffff8211171561104357611043610dc5565b604052823561105181610d93565b81526020928301359281019290925250919050565b634e487b7160e01b600052602160045260246000fd5b634e487b7160e01b600052603260045260246000fd5b60006000198214156110b457634e487b7160e01b600052601160045260246000fd5b5060010190565b60408082528181018490526000908560608401835b878110156111085782356110e381610d93565b6001600160a01b031682526020838101359083015291830191908301906001016110d0565b50602092508481038386015280915085518082528382019250838701915060005b81811015611147578251151584529284019291840191600101611129565b509198975050505050505050565b60006020828403121561116757600080fd5b5051919050565b6020808252602b908201527f496e697469616c697a61626c653a20636f6e7472616374206973206e6f74206960408201526a6e697469616c697a696e6760a81b606082015260800190565b6000602082840312156111cb57600080fd5b8151610d8c81610d93565b60005b838110156111f15781810151838201526020016111d9565b83811115610be95750506000910152565b600082516112148184602087016111d6565b9190910192915050565b602081526000825180602084015261123d8160408501602087016111d6565b601f01601f1916919091016040019291505056fe360894a13ba1a3210667c828492db98dca3e2076cc3735a920a3ca505d382bbc416464726573733a206c6f772d6c6576656c2064656c65676174652063616c6c206661696c6564a264697066735822122072b127909c34f47d205dd49e614abe7002c32d842105ce2ac6ada02842427a4d64736f6c63430008090033",
  "devdoc": {
    "details": "This contract is upgradeable through UUPS (EIP-1822), and the      the upgrader is the owner of the contract (ownership can be transferred)",
    "events": {
      "ERC721TokensAuthenticated((address,uint256)[],bool[])": {
        "details": "emitted when owner authenticates ERC721 tokens",
        "params": {
          "statuses": "whether the tokens (by index) were authenticated or not",
          "tokens": "the tokens to authenticate"
        }
      }
    },
    "kind": "dev",
    "methods": {
      "authenticateERC721Tokens((address,uint256)[])": {
        "details": "The token should exists to be authenticated",
        "params": {
          "tokens_": "The list of tokens to be potentially authenticated"
        }
      },
      "constructor": {
        "details": "The initializer modifier is to avoid someone initializing      the implementation contract after deployment (see proxy pattern for upgrades)"
      },
      "initialize()": {
        "details": "Initializes the contract (makes the deployer the owner by default)"
      },
      "isAuthenticated((address,uint256))": {
        "details": "returns false if the token was burned",
        "params": {
          "token_": "the information of the token to query (collection and token id)"
        },
        "returns": {
          "authenticated": "whether the token is authenticated or not"
        }
      },
      "owner()": {
        "details": "Returns the address of the current owner."
      },
      "proxiableUUID()": {
        "details": "Implementation of the ERC1822 {proxiableUUID} function. This returns the storage slot used by the implementation. It is used to validate that the this implementation remains valid after an upgrade. IMPORTANT: A proxy pointing at a proxiable contract should not be considered proxiable itself, because this risks bricking a proxy that upgrades to it, by delegating to itself until out of gas. Thus it is critical that this function revert if invoked through a proxy. This is guaranteed by the `notDelegated` modifier."
      },
      "renounceOwnership()": {
        "details": "Leaves the contract without owner. It will not be possible to call `onlyOwner` functions anymore. Can only be called by the current owner. NOTE: Renouncing ownership will leave the contract without an owner, thereby removing any functionality that is only available to the owner."
      },
      "transferOwnership(address)": {
        "details": "Transfers ownership of the contract to a new account (`newOwner`). Can only be called by the current owner."
      },
      "upgradeTo(address)": {
        "details": "Upgrade the implementation of the proxy to `newImplementation`. Calls {_authorizeUpgrade}. Emits an {Upgraded} event."
      },
      "upgradeToAndCall(address,bytes)": {
        "details": "Upgrade the implementation of the proxy to `newImplementation`, and subsequently execute the function call encoded in `data`. Calls {_authorizeUpgrade}. Emits an {Upgraded} event."
      }
    },
    "stateVariables": {
      "_nftAuthenticationState": {
        "details": "A mapping to store the current state of one NFT by protocolId      (protocolId = keccak256(abi.encode(collection, tokenId)))"
      }
    },
    "title": "Smart contract where authentication data is stored",
    "version": 1
  },
  "userdoc": {
    "kind": "user",
    "methods": {
      "authenticateERC721Tokens((address,uint256)[])": {
        "notice": "Allows authentication in batches of ERC721 NFTs"
      },
      "isAuthenticated((address,uint256))": {
        "notice": "getter to query if a token is authenticated"
      }
    },
    "version": 1
  },
  "storageLayout": {
    "storage": [
      {
        "astId": 519,
        "contract": "contracts/NFTAuthenticator.sol:NFTAuthenticator",
        "label": "_initialized",
        "offset": 0,
        "slot": "0",
        "type": "t_bool"
      },
      {
        "astId": 522,
        "contract": "contracts/NFTAuthenticator.sol:NFTAuthenticator",
        "label": "_initializing",
        "offset": 1,
        "slot": "0",
        "type": "t_bool"
      },
      {
        "astId": 501,
        "contract": "contracts/NFTAuthenticator.sol:NFTAuthenticator",
        "label": "__gap",
        "offset": 0,
        "slot": "1",
        "type": "t_array(t_uint256)50_storage"
      },
      {
        "astId": 721,
        "contract": "contracts/NFTAuthenticator.sol:NFTAuthenticator",
        "label": "__gap",
        "offset": 0,
        "slot": "51",
        "type": "t_array(t_uint256)50_storage"
      },
      {
        "astId": 1006,
        "contract": "contracts/NFTAuthenticator.sol:NFTAuthenticator",
        "label": "__gap",
        "offset": 0,
        "slot": "101",
        "type": "t_array(t_uint256)50_storage"
      },
      {
        "astId": 10,
        "contract": "contracts/NFTAuthenticator.sol:NFTAuthenticator",
        "label": "_owner",
        "offset": 0,
        "slot": "151",
        "type": "t_address"
      },
      {
        "astId": 122,
        "contract": "contracts/NFTAuthenticator.sol:NFTAuthenticator",
        "label": "__gap",
        "offset": 0,
        "slot": "152",
        "type": "t_array(t_uint256)49_storage"
      },
      {
        "astId": 3278,
        "contract": "contracts/NFTAuthenticator.sol:NFTAuthenticator",
        "label": "_nftAuthenticationState",
        "offset": 0,
        "slot": "201",
        "type": "t_mapping(t_bytes32,t_enum(NFTStates)3272)"
      }
    ],
    "types": {
      "t_address": {
        "encoding": "inplace",
        "label": "address",
        "numberOfBytes": "20"
      },
      "t_array(t_uint256)49_storage": {
        "base": "t_uint256",
        "encoding": "inplace",
        "label": "uint256[49]",
        "numberOfBytes": "1568"
      },
      "t_array(t_uint256)50_storage": {
        "base": "t_uint256",
        "encoding": "inplace",
        "label": "uint256[50]",
        "numberOfBytes": "1600"
      },
      "t_bool": {
        "encoding": "inplace",
        "label": "bool",
        "numberOfBytes": "1"
      },
      "t_bytes32": {
        "encoding": "inplace",
        "label": "bytes32",
        "numberOfBytes": "32"
      },
      "t_enum(NFTStates)3272": {
        "encoding": "inplace",
        "label": "enum NFTAuthenticator.NFTStates",
        "numberOfBytes": "1"
      },
      "t_mapping(t_bytes32,t_enum(NFTStates)3272)": {
        "encoding": "mapping",
        "key": "t_bytes32",
        "label": "mapping(bytes32 => enum NFTAuthenticator.NFTStates)",
        "numberOfBytes": "32",
        "value": "t_enum(NFTStates)3272"
      },
      "t_uint256": {
        "encoding": "inplace",
        "label": "uint256",
        "numberOfBytes": "32"
      }
    }
  }
}